:100000000C948B000C94AA000C94AA000C94AA00E7
:100010000C94AA000C94AA000C94AA000C94AA00B8
:100020000C94AA000C94AA000C94AA000C94AA00A8
:100030000C94AA000C946F010C94AA000C94AA00D2
:100040000C94AA000C94AA000C94AA000C94AA0088
:100050000C94AA000C94AA000C94AA000C94AA0078
:100060000C94AA000C94AA000C94AA000C94AA0068
:100070000C94AA000C94AA000C94AA000C94AA0058
:100080000C94AA000C94AA000C94AA0033047604E1
:100090007604760476047604760476047604760490
:1000A0007604760476047604760476047604760480
:1000B0007604760476047604760476047604760470
:1000C0007604760476047604760476047604760460
:1000D0007604720476047604760476047604760454
:1000E0006B04760476047604760476046F04370491
:1000F0003B043F04430447044B044F045304570498
:1001000076047604760476047604760476045B043A
:100110005F046304670411241FBECFEFD0E4DEBF89
:10012000CDBF11E0A0E0B1E0E6EEFBE000E00BBFE8
:1001300002C007900D92A430B107D9F721E0A4E0E6
:10014000B1E001C01D92A531B207E1F70E948B0416
:100150000C94F1050C940000CF93DF9300D01F9214
:10016000CDB7DEB789836A834B838B81882371F097
:100170008A81282F30E081E090E002C0880F991F2B
:100180002A95E2F7982F8981892B0EC08A81282F22
:1001900030E081E090E002C0880F991F2A95E2F7D5
:1001A000982F9095898189230F900F900F90DF9160
:1001B000CF910895CF93DF9300D0CDB7DEB7898379
:1001C0006A838A81282F30E081E090E002C0880FA6
:1001D000991F2A95E2F7982F898189230F900F9014
:1001E000DF91CF910895CF93DF9300D000D0CDB7AA
:1001F000DEB769837A838B839C8389819A81AB8103
:10020000BC818093000190930101A0930201B093FF
:1002100003018091000190910101A0910201B09130
:1002200003018093050190930601A0930701B09309
:10023000080100000F900F900F900F90DF91CF9169
:100240000895CF93DF93CDB7DEB781E890E02BE040
:10025000FC01208388E890E02DE730E0FC01318349
:1002600020838FE690E022E0FC01208384E890E088
:10027000FC01118210828091000190910101A091F6
:100280000201B09103018093050190930601A093B0
:100290000701B09308018FE590E02FE530E0F90108
:1002A00020812068FC0120830000DF91CF91089518
:1002B000CF93DF93CDB7DEB781E890E0FC011082E9
:1002C0000000DF91CF910895CF93DF93CDB7DEB7D4
:1002D00081E0809304010000DF91CF9108951F9287
:1002E0000F9200905F000F92112400905B000F921C
:1002F0002F933F934F935F936F937F938F939F932E
:10030000AF93BF93EF93FF93CF93DF93CDB7DEB758
:100310008091050190910601A0910701B09108011B
:100320000197A109B1098093050190930601A0935B
:100330000701B09308018091050190910601A091F9
:100340000701B0910801892B8A2B8B2B91F40E9415
:1003500064018091000190910101A0910201B0918E
:1003600003018093050190930601A0930701B093C8
:1003700008010000DF91CF91FF91EF91BF91AF9104
:100380009F918F917F916F915F914F913F912F91AD
:100390000F9000925B000F9000925F000F901F90F3
:1003A0001895CF93DF93CDB7DEB781E00E94F801B7
:1003B0000000DF91CF910895CF93DF93CDB7DEB7E3
:1003C00084E690E00E949C0288E30E94F80186E0A7
:1003D0000E94F8018FE00E94F80181E00E94F8017C
:1003E0008AE090E00E949C020000DF91CF91089586
:1003F000CF93DF931F92CDB7DEB789838BE290E076
:100400002BE230E0F90120812F7BFC01208388E280
:1004100090E02981FC0120838BE290E02BE230E028
:10042000F90120812068FC01208300008BE290E02C
:100430002BE230E0F90120812F77FC01208382E05C
:1004400090E00E949C0200000F90DF91CF910895F0
:10045000CF93DF931F92CDB7DEB789838BE290E015
:100460002BE230E0F90120812064FC01208388E246
:1004700090E02981FC0120838BE290E02BE230E0C8
:10048000F90120812068FC01208300008BE290E0CC
:100490002BE230E0F90120812F77FC01208381E0FD
:1004A00090E00E949C0200000F90DF91CF91089590
:1004B000CF93DF9300D000D0CDB7DEB78A837C83A3
:1004C0006B830E94D1018A81898311C0898191E067
:1004D000980F99830E9485028B819C819C012F5FDC
:1004E0003F4F3C832B83FC0180810E9428028B813B
:1004F0009C81FC018081882349F700000F900F90B8
:100500000F900F90DF91CF910895CF93DF931F92BB
:10051000CDB7DEB789838981813128F489818158FB
:100520000E94F80104C0898181550E94F8010000F1
:100530000F90DF91CF910895CF93DF9300D000D03B
:1005400000D0CDB7DEB79E838D831A82198213C087
:100550001C821B8206C000008B819C8101969C83BB
:100560008B838B819C8187309340ACF389819A8106
:1005700001969A83898329813A818D819E812817EA
:10058000390734F3000026960FB6F894DEBF0FBE8D
:10059000CDBFDF91CF9108950F931F93CF93DF933A
:1005A000CDB7DEB708E210E040E064E08FEF0E94D4
:1005B000AC00F8018083000086E290E0FC018081BD
:1005C000809560E00E94DA00882311F081E3D3C0B7
:1005D00086E290E0FC018081809561E00E94DA0073
:1005E000882311F084E3C7C086E290E0FC0180819B
:1005F000809562E00E94DA00882311F087E3BBC097
:1006000086E290E0FC018081809563E00E94DA0040
:10061000882311F08AE2AFC008E210E040E065E014
:100620008FEF0E94AC00F8018083000086E290E02A
:10063000FC018081809560E00E94DA00882311F03F
:1006400082E399C086E290E0FC018081809561E0C0
:100650000E94DA00882311F085E38DC086E290E0E5
:10066000FC018081809562E00E94DA00882311F00D
:1006700088E381C086E290E0FC018081809563E0A0
:100680000E94DA00882311F080E375C008E210E0D0
:1006900040E066E08FEF0E94AC00F801808300002C
:1006A00086E290E0FC018081809560E00E94DA00A3
:1006B000882311F083E35FC086E290E0FC01808133
:1006C000809561E00E94DA00882311F086E353C030
:1006D00086E290E0FC018081809562E00E94DA0071
:1006E000882311F089E347C086E290E0FC01808115
:1006F000809563E00E94DA00882311F083E23BC01A
:1007000008E210E040E067E08FEF0E94AC00F801E3
:100710008083000086E290E0FC018081809560E0AB
:100720000E94DA00882311F081E425C086E290E07F
:10073000FC018081809561E00E94DA00882311F03D
:1007400082E419C086E290E0FC018081809562E03D
:100750000E94DA00882311F083E40DC086E290E065
:10076000FC018081809563E00E94DA00882311F00B
:1007700084E401C080E0DF91CF911F910F91089533
:10078000CF93DF93CDB7DEB72C970FB6F894DEBFCB
:100790000FBECDBF6D837E838F83988729873A876D
:1007A0004B875C878D819E81AF81B88529853A858D
:1007B0004B855C85BC01CD010E94C605DC01CB01E7
:1007C00089839A83AB83BC8389819A81AB81BC8105
:1007D000892B8A2B8B2B29F489859A85AB85BC853F
:1007E00011C089859A85AB85BC858D839E83AF8337
:1007F000B88789819A81AB81BC8189879A87AB87C9
:10080000BC87D0CFBC01CD012C960FB6F894DEBFCB
:100810000FBECDBFDF91CF910895CF93DF9300D06E
:100820001F92CDB7DEB79B838A830E94CC02898357
:100830008A819B81892B09F066C08981882F90E08D
:10084000092E000CAA0BBB0B40E050E024E430E082
:10085000841B950B2817390708F448C08A5B9F4F03
:10086000FC010C94E8058FE18093090143C081E00D
:10087000809309013FC082E0809309013BC083E07F
:100880008093090137C084E08093090133C085E07B
:10089000809309012FC086E0809309012BC087E077
:1008A0008093090127C088E08093090123C089E073
:1008B000809309011FC08AE0809309011BC08BE06F
:1008C0008093090117C08CE08093090113C08DE06B
:1008D000809309010FC08EE0809309010BC0109234
:1008E000090108C08FE08093090104C08BE1809367
:1008F000090100001B821A8285E290E02091090123
:10090000FC01208300008A819B810F900F900F9043
:10091000DF91CF9108950F931F93CF93DF93CDB7BE
:10092000DEB766970FB6F894DEBF0FBECDBF81E28B
:1009300090E02FEFFC01208382E290E0FC01108226
:1009400084E290E02FEFFC01208385E290E0FC013F
:10095000108287E290E020EFFC01208388E290E0A3
:100960002FE0FC0120838AE290E02FEFFC0120833E
:100970008BE290E0FC01108284E190E0A0E0B0E026
:100980008B839C83AD83BE838AE090E0A0E0B0E0DF
:100990008F839887A987BA878F819885A985BA851B
:1009A0008B879C87AD87BE878B819C81AD81BE8103
:1009B0002B853C854D855E85BC01CD010E94C60519
:1009C000DA01C9018F87988BA98BBA8B8AE091E0F5
:1009D0009E8B8D8B81E090E09C8B8B8B10920A011B
:1009E0008F859889A989BA8980930B0190930C010E
:1009F000A0930D01B0930E018F859889A989BA89BA
:100A000080930F0190931001A0931101B0931201F4
:100A10008DE094E090931401809313018B859C8565
:100A2000AD85BE85BC01CD010E94F3000E9421016D
:100A30001A8219829BC089819A81880F991F9E0111
:100A40002F5F3F4F820F931F4496FC01808191815D
:100A5000FC01258136814781508589819A81880FE3
:100A6000991FBE016F5F7F4F860F971F4496FC0151
:100A700080819181FC0181819281A381B4812817B9
:100A800039074A075B0709F045C089819A81880FB9
:100A9000991F9E012F5F3F4F820F931F4496FC01C9
:100AA0000081118189819A81880F991F9E012F5F92
:100AB0003F4F820F931F4496FC0180819181FC017E
:100AC0002185328589819A81880F991FAE014F5FF8
:100AD0005F4F840F951F4496FC0180819181FC013A
:100AE0008081082E000C990BF9010995F80180838B
:100AF00089819A81880F991F9E012F5F3F4F820F36
:100B0000931F4496FC0180819181FC01158216821D
:100B10001782108689819A81880F991F9E012F5F05
:100B20003F4F820F931F4496FC01208131818981C0
:100B30009A81880F991FAE014F5F5F4F840F951FF9
:100B40004496FC0180819181FC0185819681A78179
:100B5000B0850196A11DB11DF90185839683A783F8
:100B6000B08789819A8101969A83898329813A8104
:100B70008B899C892817390708F45DCF0000809184
:100B800004018823E1F31092040152CFA1E21A2E4E
:100B9000AA1BBB1BFD010DC0AA1FBB1FEE1FFF1F21
:100BA000A217B307E407F50720F0A21BB30BE40B71
:100BB000F50B661F771F881F991F1A9469F76095B8
:100BC0007095809590959B01AC01BD01CF01089572
:100BD000EE0FFF1F0024001C0BBE0790F691E02DC6
:060BE0000994F894FFCF18
:040BE600010000000A
:00000001FF
